:060000000A128A1110280B
:10000800FE00030E83120313C6000A08C7007F0808
:10001800C8000A128A116A2C0A128A11132883123C
:100028000313CD01CE01CF01D001D101D201D301FB
:1000380083160313B201B301B401B501B601B701C8
:10004800B801B90183010A128A118B2B8312031399
:1000580023088039A8002808AD002308A80028072D
:10006800A9002908B300A21F3A283B283C283314CA
:1000780033080319402841285028330A031D45280E
:1000880046284E280030A3000030A2000030A1000E
:100098000030A000A21758280030A3000030A200AA
:1000A8000030A1000030A00027088039A8002808E7
:1000B800AD062708A8002807A9002908B200A61F2E
:1000C8006628672868283214320803196C286D28B6
:1000D8007C28320A031D712872287A280030A7006C
:1000E8000030A6000030A5000030A400A617842820
:1000F8000030A7000030A6000030A5000030A400A2
:1001080032080319882889288E283308031D8D286A
:100118008E2897280030A3000030A2000030A100EC
:100128000030A0008A2B2008A8002808F000260824
:100138000A128A15CD250A128A117108831203132F
:10014800B9007008B8003808A800A901AA01AB01D5
:100158002B08B1002A08B0002908AF002808AE0013
:100168003908A800A901AA01AB012B08B7002A0881
:10017800B6002908B5002808B4002108A8002808F6
:10018800F00025080A128A15CD250A128A1171086D
:1001980083120313B9007008B8003808A800A90131
:1001A800AA01AB012808AE07290803110318013E6C
:1001B8000319DF28AF072A0803110318013E0319A2
:1001C800E628B0072B0803110318013E0319ED2890
:1001D800B1073908A800A901AA01AB012808B4078A
:1001E800290803110318013E0319FB28B5072A083B
:1001F80003110318013E03190229B6072B0803113E
:100208000318013E03190929B7072208A80028087E
:10021800F00024080A128A15CD250A128A117108DD
:1002280083120313B9007008B8003808A800A901A0
:10023800AA01AB012808AE07290803110318013EDB
:1002480003192729AF072A0803110318013E0319C8
:100258002E29B0072B0803110318013E031935296D
:10026800B1073908A800A901AA01AB012808B407F9
:10027800290803110318013E03194329B5072A0861
:1002880003110318013E03194A29B6072B08031165
:100298000318013E03195129B7070830A8000310B5
:1002A800AE0DAF0DB00DB10DA80B53292108A80054
:1002B8002808F00024080A128A15CD250A128A1186
:1002C800710883120313B9007008B8003808A80031
:1002D8003908A900AA01AB012808AE0729080311AB
:1002E8000318013E03197929AF072A0803110318D7
:1002F800013E03198029B0072B0803110318013E9A
:1003080003198729B1072008A8002808F000250844
:100318000A128A15CD250A128A117108831203134D
:10032800B9007008B8003808A8003908A900AA015F
:10033800AB012808AE07290803110318013E031969
:10034800A629AF072A0803110318013E0319AD298E
:10035800B0072B0803110318013E0319B429B1078C
:100368000830A8000310AE0DAF0DB00DB10DA80BED
:10037800B6292008A8002808F00024080A128A15BF
:10038800CD250A128A11710883120313B900700867
:10039800B8003808A8003908A900AA01AB01280844
:1003A800AE07290803110318013E0319DC29AF071A
:1003B8002A0803110318013E0319E329B0072B0883
:1003C80003110318013E0319EA29B1072108A800FF
:1003D8002808F00026080A128A15CD250A128A1163
:1003E800710883120313B9007008B8003808A80010
:1003F8003908A900AA01AB012808B4072908031184
:100408000318013E0319092AB5072A08031103181E
:10041800013E0319102AB6072B0803110318013EE1
:100428000319172AB7072208A8002808F00025088A
:100438000A128A15CD250A128A117108831203132C
:10044800B9007008B8003808A8003908A900AA013E
:10045800AB012808B407290803110318013E031942
:10046800362AB5072A0803110318013E03193D2A45
:10047800B6072B0803110318013E0319442AB707CE
:100488002208A8002808F00026080A128A15CD2597
:100498000A128A11710883120313B9007008B80090
:1004A8003808A8003908A900AA01AB0108300310D0
:1004B800A80DA90DAA0DAB0DFF3E031D5B2A280848
:1004C800B407290803110318013E03196C2AB5075C
:1004D8002A0803110318013E0319732AB6072B08CB
:1004E80003110318013E03197A2AB7072E08A8003A
:1004F8002F08A9003008AA003108AB0018300310F3
:10050800AB0CAA0CA90CA80CFF3E031D832A2808D3
:10051800B407290803110318013E0319942AB507E3
:100528002A0803110318013E03199B2AB6072B0852
:1005380003110318013E0319A22AB7070830A800BF
:100548000310AE0DAF0DB00DB10DA80BA42A3308E2
:100558003207A800A901A90D2808823EB800290879
:100568000318013EFF3EB900D62A0130A800031047
:10057800B40DB50DB60DB70DA80BBB2AB11FC52A12
:10058800C62AC72A34140130A8000310AE0DAF0DD7
:10059800B00DB10DA80BC92AFF30B8070318B90A66
:1005A800FF30B907B61FD92ADA2AB92AB201B11F12
:1005B800DE2ADF2AFB2AFF302E05A800FF302F0590
:1005C800A900FF303005AA007F303105AB002B08A9
:1005D8002A04290428040319F22AF32AF62AB20164
:1005E800B20AFB2A341CF92AFA2AFB2AF32A32080F
:1005F8000319FF2A002B312B0130B40700300318F0
:100608000130B507003003180130B6070030031871
:100618000130B707371C112B122B312B3408A800D7
:100628003508A9003608AA003708AB000130AC002D
:100638002B0DAB0CAA0CA90CA80CAC0B1C2B2B0873
:10064800B7002A08B6002908B5002808B400013008
:10065800B8070318B90A0030B9073908803AFF000B
:1006680080307F02031D3A2BFF303802031C3D2BDC
:100678003E2B492B7F3083120313B7008030B6001E
:100688000030B5000030B4007E2B83120313390804
:10069800803AFF0080307F02031D542B013038025E
:1006A8000318572B582B642B003083120313B70001
:1006B8000030B6000030B5000030B400AD017E2B2C
:1006C800831203133808A8002808B300FF30B405C4
:1006D800FF30B5057F30B6050030B705331C752BE4
:1006E800762B772BB6173308A8000310280CA9001F
:1006F8002908B7002D08A8002808B7043708A30060
:100708003608A2003508A1003408A00008000A1223
:100718008A151D260A128A1183160313A401A40A36
:1007280001300A128A15A7250A128A1101300A1205
:100738008A15F4250A128A1100300A128A11BD2678
:100748000A128A11343083160313B100F130B00055
:10075800B00BAC2BB10BAC2B01300A128A11BD26A1
:100768000A128A11343083160313B100F130B00035
:10077800B00BBC2BB10BBC2B831203135008831690
:100788000313AA00831203134F0883160313A90047
:100798000130AB000030AC000A128A1146250A125B
:1007A8008A11831203134E0883160313AA008312B7
:1007B80003134D0883160313A9000230AB00003061
:1007C800AC000A128A1146250A128A1183160313ED
:1007D800A401A40A02300A128A15A7250A128A114E
:1007E80010300A128A15F4250A128A118316031387
:1007F8003608303E0A128A156D250A128A112E30E3
:100808000A128A156D250A128A11831603133708EE
:10081800303E0A128A156D250A128A1183160313AF
:100828003808303E0A128A156D250A128A11563088
:100838000A128A156D250A128A1110300A128A15B1
:10084800F4250A128A1110300A128A15F4250A12A0
:100858008A1110300A128A15F4250A128A111030EA
:100868000A128A15F4250A128A118316031332080C
:10087800303E0A128A156D250A128A112E300A1284
:100888008A156D250A128A11831603133308303E20
:100898000A128A156D250A128A1183160313340861
:1008A800303E0A128A156D250A128A1156300A122C
:1008B8008A156D250A128A1110300A128A15F42534
:1008C8000A128A11A02B0A128A1110280C1F6D2CEB
:1008D8006E2C3D2D1F0CC500450C0F39003A031D29
:1008E800762C772CDA2C0A128A1589250A128A1195
:1008F800710883120313D0007008CF004F08F0006E
:100908005008F100F201F30100300A128A1103269F
:100918000A128A11730883120313A7007208A6002B
:100928007108A5007008A4003B30A300A030A20005
:100938002830A1000A30A0000A128A112A200A12BF
:100948008A11831203132308CC002208CB00210844
:10095800CA002008C9004C08A7004B08A6004A088E
:10096800A5004908A4004230A300C830A200003006
:10097800A1000030A0000A128A112A200A128A1146
:10098800831203132308BD002208BC002108BB0002
:100998002008BA000A128A1164270A128A118312DF
:1009A80003133B08D0003A08CF003C2D0A128A15E1
:1009B80089250A128A11710883120313CE00700860
:1009C800CD004D08F0004E08F100F201F3010030AF
:1009D8000A128A1103260A128A1173088312031352
:1009E800A7007208A6007108A5007008A4003B3093
:1009F800A300A030A2002830A1000A30A0000A12EB
:100A08008A112A200A128A11831203132308CC00A0
:100A18002208CB002108CA002008C9004C08A700FA
:100A28004B08A6004A08A5004908A4004230A300C4
:100A3800C830A2000030A1000030A0000A128A11BC
:100A48002A200A128A11831203132308BD002208E0
:100A5800BC002108BB002008BA000A128A116427CA
:100A68000A128A11831203133B08CE003A08CD00FC
:100A78000C134808FF0047088A00460E8300FE0E44
:100A88007E0E0900831603132B032C04031D4D2D22
:100A98004E2DA52D6430A0000030A1002A08A30027
:100AA8002908A2000A128A1527270A128A11831612
:100AB80003132008AD002D08B6006430A0000030F4
:100AC800A1002A08A3002908A2000A128A15CC2628
:100AD8000A128A11831603132008AD002D08B900E5
:100AE8000A30A0000030A1003908AD00AE012D0881
:100AF800A2002E08A3000A128A1527270A128A11B3
:100B0800831603132008AF002F08B7000A30A0008F
:100B18000030A1003908AD00AE012D08A2002E0852
:100B2800A3000A128A15CC260A128A118316031307
:100B38002008AF002F08B9003908AD002D08B8000B
:100B4800022E02302B062C04031DAB2DAC2D022ED9
:100B58006430A0000030A1002A08A3002908A200E0
:100B68000A128A1527270A128A11831603132008E6
:100B7800AD002D08B2006430A0000030A1002A08A2
:100B8800A3002908A2000A128A15CC260A128A1183
:100B9800831603132008AD002D08B5000A30A00005
:100BA8000030A1003508AD00AE012D08A2002E08C6
:100BB800A3000A128A1527270A128A11831603131B
:100BC8002008AF002F08B3000A30A0000030A100B1
:100BD8003508AD00AE012D08A2002E08A3000A12A8
:100BE8008A15CC260A128A11831603132008AF002F
:100BF8002F08B5003508AD002D08B4000800F8002E
:100C080078080319082E092E1D2EF31F0C2E0D2E01
:100C18001D2E7009FA007109FB007209FC007309A6
:100C2800FD00FA0A0319FB0A0319FC0A0319FD0A55
:100C3800252E7308FD007208FC007108FB0070087F
:100C4800FA007308720471047004031D2C2E2D2EF3
:100C5800362E0030F3000030F2000030F100003092
:100C6800F000BC2E9630F4007408F900482E0130CC
:100C7800F4007408F90701300310FD0CFC0CFB0CA0
:100C8800FA0CFF3E031D402EFE307D05031D4D2E40
:100C98004E2E3B2E6A2E0130F4007408F9070130FD
:100CA800FA07003003180130FB0700300318013041
:100CB800FC07003003180130FD0701300310FD0C5C
:100CC800FC0CFB0CFA0CFF3E031D622EFF307D0569
:100CD800031D6F2E702E4F2E7C2E0130F90201302D
:100CE800F4000310FA0DFB0DFC0DFD0DF40B752E31
:100CF800FC1B7F2E802E862E023079020318852E4B
:100D0800862E712E7918892E8A2E922EFF30FA059A
:100D1800FF30FB057F30FC05FF30FD050310F90CA3
:100D28007908F400F501F601F70118300310F40D05
:100D3800F50DF60DF70DFF3E031D9A2E7408FA0403
:100D48007508FB047608FC047708FD047808031985
:100D5800AE2EAF2EB42EF31FB22EB32EB42EFD1727
:100D68007D08F3007C08F2007B08F1007A08F000A7
:100D7800080083160313A200831203139F18C52EBD
:100D8800C62E632F2C2FC330831203139F05622FA7
:100D9800831203131F08C33904389F00622F83127C
:100DA80003131F08C33908389F00622F83120313E7
:100DB8001F08C3390C389F00622F831203131F08C2
:100DC800C33910389F00622F831203131F08C339D9
:100DD80014389F00622F831203131F08C339183871
:100DE8009F00622F831203131F08C3391C389F000A
:100DF800622F831203131F08C33920389F00622F04
:100E0800831203131F08C33924389F00622F8312EB
:100E180003131F08C33928389F00622F8312031356
:100E28001F08C3392C389F00622F831203131F0831
:100E3800C33930389F00622F831203131F08C33948
:100E480034389F00622FC330831203139F05622F2B
:100E5800831603132208A000A1012108003A0319F0
:100E6800362F272F2008003A0319C72E013A0319F5
:100E7800CC2E033A0319D32E013A0319DA2E073A76
:100E88000319E12E013A0319E82E033A0319EF2E4C
:100E9800013A0319F62E0F3A0319FD2E013A0319E8
:100EA800042F033A03190B2F013A0319122F073A9B
:100EB8000319192F013A0319202F272F9F1408000F
:100EC8000310831203133C0D3D0DBE003E08C40001
:100ED8004408031D702F712F7A2F0030BD00003099
:100EE800BC000030BB000030BA00DF2F3A08BE005B
:100EF8003B08BF003C08C0003D08C1001F3003107C
:100F0800C10CC00CBF0CBE0CFF3E031D832F3E0856
:100F1800C2004208C300BC17FF30BA05FF30BB054A
:100F2800FF30BC050030BD059630C402C41F9D2F9C
:100F38009E2FB82F4408803A973E0318A42FA52F58
:100F4800A62F712F01300310BD0CBC0CBB0CBA0CC2
:100F5800FF3E031DA72F0130BE003E08C407031D36
:100F6800B62FB72FA62FCF2F20304402031CBD2F3A
:100F7800BE2FCA2F712F0130BE000310BA0DBB0D52
:100F8800BC0DBD0DBE0BC12F0130C4024408031DAA
:100F9800CE2FCF2FBF2F43080319D32FD42FDF2FE6
:100FA800BA09BB09BC09BD09BA0A0319BB0A031966
:100FB800BC0A0319BD0A080083160313A300831291
:100FC800031307138316031323080A128A156525CA
:100FD8000A128A118312031387170B30831603131F
:100FE800A2006130A100A10BF72FA20BF72FFC2F55
:100FF800831203138713080008308A000408840A40
:1010080082070034203420345334313420342034DF
:1010180020342034203420342034203453343234E3
:0610280000342034003406
:101ACA0083160313A000200883120313880008005A
:101ADA0083160313A2008312031307178316031333
:101AEA0022080A128A1565250A128A158312031317
:101AFA008717193083160313A100A10B822D852D98
:101B0A008312031387130800831203131E08F200BB
:101B1A00F3017208F4007308F5007408F300F20187
:101B2A007208F4007308F500831603131E08F20006
:101B3A00F3017208F4047308F5047508F1007408D7
:101B4A00F000080083160313A6002603031DAE2D1A
:101B5A00AF2DBB2D24087F3EA5002508A700270826
:101B6A000A128A11E0270A128A15CC2D023026069B
:101B7A00031DC02DC12DCC2D2408BF3EA50025086C
:101B8A00A70027080A128A11E0270A128A150800F4
:101B9A00F800F401F5017008F200F3017208F6008A
:101BAA007308F700781CDA2DDB2DE12D7608F4078F
:101BBA000318F50A7708F50701300310F60DF70D3B
:101BCA00FF3E031DE22D0310F80C7808031DEE2DCD
:101BDA00EF2DD72D7508F1007408F0000800831660
:101BEA000313A500A301A4010F2E230825078400CF
:101BFA000A128A1500200A128A150A128A156D25F8
:101C0A000A128A15013083160313A3070318A40ABC
:101C1A000030A4072308250784000A128A15002029
:101C2A000A128A15003A031D1B2E1C2EFA2D0800D3
:101C3A0003308316031385008312031385010330CF
:101C4A0083160317880089018316031388018312F8
:101C5A000313880183160313870183120313870171
:101C6A0008300A128A154D260A128A15831603139A
:101C7A00A001A10108300A128A1590270A128A15B2
:101C8A000A128A1580260A128A150B178B17080062
:101C9A0083160313A2000F14692E0F088F394038D8
:101CAA008F007F2E0F088F3950388F007F2E0F0834
:101CBA008F3960388F007F2E70308F047F2E0F0887
:101CCA008F3960388F007F2E2208A000A1012108D9
:101CDA00003A0319712E642E2008013A0319522E74
:101CEA00033A0319572E063A03195C2E0C3A0319C4
:101CFA00612E642E080000300A128A1565250A1220
:101D0A008A15343083160313A500F130A400A40BFE
:101D1A008C2EA50B8C2E30300A128A11E0270A125B
:101D2A008A150D3083160313A500FB30A400A40BFB
:101D3A009C2EA50B9C2E30300A128A11E0270A121B
:101D4A008A15483083160313A400A40BAA2E000098
:101D5A0030300A128A11E0270A128A1538300A121C
:101D6A008A11E0270A128A150C300A128A11E02712
:101D7A000A128A1501300A128A11E0270A128A15F4
:101D8A0006300A128A11E0270A128A1508008316F9
:101D9A000313A601A31FD22ED32EDA2EA209A3095A
:101DAA00A20A0319A30AA601A60AA11FDD2EDE2E86
:101DBA00E32EA009A109A00A0319A10A20082104F7
:101DCA000319E82EE92E182FA501A50AF72E0130CE
:101DDA000310A00DA10DFF3E031DED2E0130A4003E
:101DEA002408A507A11FFA2EFB2EEC2E2108230298
:101DFA00031D012F20082202031C042F052F0B2F7D
:101E0A002008A2022108031CA303A3020130031025
:101E1A00A10CA00CFF3E031D0C2F0130A502031DCF
:101E2A00172F182FFB2E260803191C2F1D2F222FC0
:101E3A00A209A309A20A0319A30A2308A1002208D6
:101E4A00A000080083160313A601A11F2D2F2E2F11
:101E5A00352FA009A109A00A0319A10AA601A60AF9
:101E6A00A31F382F392F422FA209A309A20A031947
:101E7A00A30A0130A4002408A606A701A801200885
:101E8A0021040319492F4A2F812FA501A50A582F8A
:101E9A0001300310A00DA10DFF3E031D4E2F01308E
:101EAA00A4002408A507A11F5B2F5C2F4D2F01302A
:101EBA000310A70DA80DFF3E031D5D2F2108230265
:101ECA00031D692F20082202031C6C2F6D2F742F0B
:101EDA002008A2022108031CA303A302271401302D
:101EEA000310A10CA00CFF3E031D752F0130A502A3
:101EFA00031D802F812F5C2F26080319852F862F1B
:101F0A008B2FA709A809A70A0319A80A2808A1005C
:101F1A002708A000080083160313A400B32FC030BB
:101F2A00831203139F04CF2F3F30831203139F059D
:101F3A00CF2F831203131F083F3940389F00CF2F3A
:101F4A00831203131F083F3980389F00CF2F831253
:101F5A0003131F083F3940389F00CF2F2408A200DF
:101F6A00A3012308003A0319BB2FAC2F2208013A18
:101F7A000319942F033A0319992F0A3A03199E2F2A
:101F8A00283A0319A52FAC2F1F12E72F1F16E72F88
:101F9A001F12E72F831603132008A200A3012308A8
:101FAA00003A0319D92FCD2F2208003A0319C92F55
:101FBA00013A0319CB2FCD2F9F12F72F9F16F72F18
:101FCA009F12F72F2108A200A3012308003A031940
:101FDA00EF2FE52F2208003A0319E12F013A0319DE
:101FEA00E32FE52F9F17831203131F140C13831675
:061FFA0003130C170800A0
:08400000FF3FFF3FFF3FFF3FC0
:04400E00D420FF3F7C
:00000001FF
